S02600005369656D656E734335355F41546D65676138415F43616C6C5365727665722E7372656324
S113000012C013C22BC02AC029C028C027C026C0D2
S113001025C024C023C0B2C117C220C01FC01EC047
S11300201DC01CC01BC011241FBECFE5D4E0DEBF21
S1130030CDBF10E0A0E6B0E0E4E2F6E002C0059037
S11300400D92AC3DB107D9F721E0ACEDB0E001C0B1
S11300501D92A53EB207E1F784D1E2C2D1CF2F921F
S11300603F924F925F926F927F928F929F92AF9244
S1130070BF92CF92DF92EF92FF920F931F93CF9391
S1130080DF933C014B015A01322E280141155105E1
S113009009F042D2C30132D28114910411F0C40197
S11300A02DD2A114B10409F440C04114510461F0EB
S11300B092013695279536952795ABE7B4E17FD223
S11300C096958795282E04C00F2EFAE02F2EF02D3A
S11300D0C32CD12C1C141D0444F5E501E12CF12C96
S11300E019C08881998153D2882321F081E0FAD004
S11300F033D209C08FE493EC0197F1F700C00000FC
S11301002A9479F709C09FEFE91AF90A2296EC14A8
S1130110FD045CF42110E5CF81E003D18201232D9D
S1130120A501B401C3019BDFEECFDF91CF911F91F5
S11301300F91FF90EF90DF90CF90BF90AF909F9082
S11301408F907F906F905F904F903F902F90089585
S11301500F931F9300E117E222E04CE650E060E7C2
S113016070E083E790E07BDF00E010E022E048E607
S113017050E060E770E086E790E071DF21E044E65C
S113018050E060E770E08BE790E069DF1F910F912A
S113019008950F931F938091600090916100F7D1AF
S11301A0882319F0D9D181E09DD08091620090918B
S11301B06300EDD1882309F44BC085E890E0E7D1D2
S11301C0811105C08FE890E0E2D1882399F18091F4
S11301D0DC008F5F8093DC0081E084D0AD9913C094
S11301E08091DC00843078F01092DC00AD9AAC9AF7
S11301F000E010E021E046E650E060E770E089E9C5
S113020090E02DDF25C0AD9B13C08091DC008230CF
S113021078F01092DC00AD98AC9800E010E021E09A
S113022046E650E060E770E089E990E018DF10C02E
S113023073D10EC01092DC0082E073D000E010E0B5
S113024021E046E650E060E770E089E990E007DFEE
S11302501F910F91089587B3806C87BB88B38F7308
S113026088BB84B3806384BB85B38F7C85BB8A9849
S1130270929A85B78E7F85BF85B7826085BF8BB71D
S113028080648BBF089595B380E2892785BB95B3BD
S113029080E1892785BB0895882319F190E020E443
S11302A038B3305838BB38B3322738BB3FE946E857
S11302B051E0315040405040E1F700C0000038B3F5
S11302C0305838BB38B3322738BB3FE946E851E0F1
S11302D0315040405040E1F700C000009F5F981348
S11302E0DFCF08958823E1F090E028B3205828BB9D
S11302F02FE936E841E0215030404040E1F700C0AA
S1130300000028B3205828BB2FE936E841E02150EB
S113031030404040E1F700C000009F5F9813E5CFF4
S113032008958823E9F090E020E438B3322738BBFD
S11303303FE946E851E0315040405040E1F700C009
S1130340000038B3322738BB3FE946E851E031506A
S113035040405040E1F700C000009F5F9813E5CF94
S1130360089579DF8CE090E0A3D0E7D0D5D07894DD
S113037083E092DFEDDE8FD00CDFFDCF1F920F9272
S11303800FB60F9211242F933F934F935F938F9344
S11303909F93EF93FF935BB14CB158718091E1004F
S11303A090E001968F7799272091E00030E028179C
S11303B0390701F14D3039F14A3001F1E091E100A2
S11303C0F0E0EC59FE4F40838093E10081E080939C
S11303D0DD0011C0E091E100F0E0EC59FE4F108225
S11303E08093E1008091DF008F5F8093DF001092A3
S11303F0DD0001C052E05093DE000AC02091DD0010
S11304002111E8CFF8CF2091DD002111E3CFF3CF04
S1130410FF91EF919F918F915F914F913F912F9118
S11304200F900FBE0F901F9018951F920F920FB64A
S11304300F9211248F9381E08093E4018F910F90A8
S11304400FBE0F901F9018951F920F920FB60F9228
S113045011248F939F93EF93FF939091E3008091E6
S1130460E200981771F08091E20090E001968F7796
S113047099278093E200FC01EC51FF4F80818CB9F5
S113048001C05598FF91EF919F918F910F900FBEEE
S11304900F901F901895CF938091E401882331F039
S11304A0CFB7F8941092E401EEDECFBFCF91089558
S11304B099231CF422E02BB99F7790BD89B98AB1A6
S11304C088698AB980B5866880BD08954091E30043
S11304D050E04F5F5F4F4F7755272091E20030E0A7
S11304E024173507D1F39FB7F894FA01EC51FF4F65
S11304F080834093E3009FBF559A0895CF93DF9381
S1130500EC018881882329F02196E0DF899181110B
S1130510FCCFDF91CF9108958FB7F8941092E1004A
S11305201092E0001092DF0090E8E4E6F1E0DF01D1
S11305301D929A95E9F78FBF08958FB7F89410929A
S1130540E3001092E20090E8E4EEF0E0DF011D9297
S11305509A95E9F78FBF0895CF93CFB7F894809118
S1130560E00090E060E070E08C599E4F34D000973A
S113057059F024E631E0821B8F5F8093E000809184
S1130580DF0081508093DF00CFBFCF910895CF93D8
S1130590BC01CFB7F8948091DF00882359F0809193
S11305A0E00090E08C599E4F21D021E0892B19F472
S11305B020E001C020E0CFBF822FCF910895A29FF9
S11305C0B001B39FC001A39F01D0B29F700D811DE4
S11305D01124911D0895FC018191861721F088232F
S11305E0D9F7992708953197CF010895FB015191C7
S11305F05523A9F0BF01DC014D9145174111E1F7E5
S113060059F4CD010190002049F04D91401541115C
S1130610C9F3FB014111EFCF81E090E00197089508
S1070620F894FFCF78
S1130624A100A600B200B2007600B2007300B200CA
S11306340D0A00415400415445300041542B434CAD
S113064449503D310032303433333639393900338B
S113065430323037373732360041542B4348555003
S11306640052494E47002B434C4950004552524FC7
S113067452004F4B002B435041533A2034002B4338
S11306845041533A2033002B435041533A20300015
S10F06942B4350415300415445310000F9
S9030000FC
